{
  "_format": "hh-sol-artifact-1",
  "contractName": "Escrow",
  "sourceName": "contracts/Escrow.sol",
  "abi": [
    {
      "inputs": [
        {
          "internalType": "address",
          "name": "_usdc",
          "type": "address"
        }
      ],
      "stateMutability": "nonpayable",
      "type": "constructor"
    },
    {
      "anonymous": false,
      "inputs": [
        {
          "indexed": true,
          "internalType": "bytes32",
          "name": "jobId",
          "type": "bytes32"
        },
        {
          "indexed": false,
          "internalType": "address",
          "name": "buyer",
          "type": "address"
        },
        {
          "indexed": false,
          "internalType": "uint256",
          "name": "amount",
          "type": "uint256"
        }
      ],
      "name": "Created",
      "type": "event"
    },
    {
      "anonymous": false,
      "inputs": [
        {
          "indexed": true,
          "internalType": "bytes32",
          "name": "jobId",
          "type": "bytes32"
        },
        {
          "indexed": false,
          "internalType": "address",
          "name": "buyer",
          "type": "address"
        },
        {
          "indexed": false,
          "internalType": "uint256",
          "name": "amount",
          "type": "uint256"
        }
      ],
      "name": "Refunded",
      "type": "event"
    },
    {
      "anonymous": false,
      "inputs": [
        {
          "indexed": true,
          "internalType": "bytes32",
          "name": "jobId",
          "type": "bytes32"
        },
        {
          "indexed": false,
          "internalType": "address",
          "name": "node",
          "type": "address"
        },
        {
          "indexed": false,
          "internalType": "uint256",
          "name": "amount",
          "type": "uint256"
        }
      ],
      "name": "Released",
      "type": "event"
    },
    {
      "inputs": [
        {
          "internalType": "bytes32",
          "name": "jobId",
          "type": "bytes32"
        },
        {
          "internalType": "address",
          "name": "node",
          "type": "address"
        },
        {
          "internalType": "uint256",
          "name": "amount",
          "type": "uint256"
        }
      ],
      "name": "create",
      "outputs": [],
      "stateMutability": "nonpayable",
      "type": "function"
    },
    {
      "inputs": [
        {
          "internalType": "bytes32",
          "name": "",
          "type": "bytes32"
        }
      ],
      "name": "escrows",
      "outputs": [
        {
          "internalType": "address",
          "name": "buyer",
          "type": "address"
        },
        {
          "internalType": "address",
          "name": "node",
          "type": "address"
        },
        {
          "internalType": "uint256",
          "name": "amount",
          "type": "uint256"
        },
        {
          "internalType": "bool",
          "name": "released",
          "type": "bool"
        },
        {
          "internalType": "uint256",
          "name": "createdAt",
          "type": "uint256"
        }
      ],
      "stateMutability": "view",
      "type": "function"
    },
    {
      "inputs": [
        {
          "internalType": "bytes32",
          "name": "jobId",
          "type": "bytes32"
        }
      ],
      "name": "getEscrow",
      "outputs": [
        {
          "components": [
            {
              "internalType": "address",
              "name": "buyer",
              "type": "address"
            },
            {
              "internalType": "address",
              "name": "node",
              "type": "address"
            },
            {
              "internalType": "uint256",
              "name": "amount",
              "type": "uint256"
            },
            {
              "internalType": "bool",
              "name": "released",
              "type": "bool"
            },
            {
              "internalType": "uint256",
              "name": "createdAt",
              "type": "uint256"
            }
          ],
          "internalType": "struct Escrow.EscrowInfo",
          "name": "",
          "type": "tuple"
        }
      ],
      "stateMutability": "view",
      "type": "function"
    },
    {
      "inputs": [
        {
          "internalType": "bytes32",
          "name": "jobId",
          "type": "bytes32"
        }
      ],
      "name": "refund",
      "outputs": [],
      "stateMutability": "nonpayable",
      "type": "function"
    },
    {
      "inputs": [
        {
          "internalType": "bytes32",
          "name": "jobId",
          "type": "bytes32"
        }
      ],
      "name": "release",
      "outputs": [],
      "stateMutability": "nonpayable",
      "type": "function"
    },
    {
      "inputs": [],
      "name": "usdc",
      "outputs": [
        {
          "internalType": "address",
          "name": "",
          "type": "address"
        }
      ],
      "stateMutability": "view",
      "type": "function"
    }
  ],
  "bytecode": "0x608060405234801561001057600080fd5b5060405162000faf38038062000faf833981810160405281019061003491906100dd565b806000806101000a81548173ffffffffffffffffffffffffffffffffffffffff021916908373ffffffffffffffffffffffffffffffffffffffff1602179055505061010a565b600080fd5b600073ffffffffffffffffffffffffffffffffffffffff82169050919050565b60006100aa8261007f565b9050919050565b6100ba8161009f565b81146100c557600080fd5b50565b6000815190506100d7816100b1565b92915050565b6000602082840312156100f3576100f261007a565b5b6000610101848285016100c8565b91505092915050565b610e95806200011a6000396000f3fe608060405234801561001057600080fd5b50600436106100625760003560e01c8063292b27c1146100675780632d83549c146100835780633e413bee146100b757806367d42a8b146100d55780637249fbb6146100f1578063f023b8111461010d575b600080fd5b610081600480360381019061007c9190610ad3565b61013d565b005b61009d60048036038101906100989190610b26565b610392565b6040516100ae959493929190610b8c565b60405180910390f35b6100bf610415565b6040516100cc9190610bdf565b60405180910390f35b6100ef60048036038101906100ea9190610b26565b610439565b005b61010b60048036038101906101069190610b26565b61066c565b005b61012760048036038101906101229190610b26565b61089f565b6040516101349190610c8f565b60405180910390f35b6000600160008581526020019081526020016000206004015414610196576040517f08c379a000000000000000000000000000000000000000000000000000000000815260040161018d90610d07565b60405180910390fd5b6040518060a001604052803373ffffffffffffffffffffffffffffffffffffffff1681526020018373ffffffffffffffffffffffffffffffffffffffff168152602001828152602001600015158152602001428152506001600085815260200190815260200160002060008201518160000160006101000a81548173ffffffffffffffffffffffffffffffffffffffff021916908373ffffffffffffffffffffffffffffffffffffffff16021790555060208201518160010160006101000a81548173ffffffffffffffffffffffffffffffffffffffff021916908373ffffffffffffffffffffffffffffffffffffffff1602179055506040820151816002015560608201518160030160006101000a81548160ff0219169083151502179055506080820151816004015590505060008054906101000a900473ffffffffffffffffffffffffffffffffffffffff1673ffffffffffffffffffffffffffffffffffffffff166323b872dd3330846040518463ffffffff1660e01b815260040161032193929190610d27565b600060405180830381600087803b15801561033b57600080fd5b505af115801561034f573d6000803e3d6000fd5b50505050827fc4010977a0fcb85c92478c27b3f40c360063776a30f79c99b0ed69d805dca96b3383604051610385929190610d5e565b60405180910390a2505050565b60016020528060005260406000206000915090508060000160009054906101000a900473ffffffffffffffffffffffffffffffffffffffff16908060010160009054906101000a900473ffffffffffffffffffffffffffffffffffffffff16908060020154908060030160009054906101000a900460ff16908060040154905085565b60008054906101000a900473ffffffffffffffffffffffffffffffffffffffff1681565b60006001600083815260200190815260200160002090508060030160009054906101000a900460ff16156104a2576040517f08c379a000000000000000000000000000000000000000000000000000000000815260040161049990610dd3565b60405180910390fd5b8060000160009054906101000a900473ffffffffffffffffffffffffffffffffffffffff1673ffffffffffffffffffffffffffffffffffffffff163373ffffffffffffffffffffffffffffffffffffffff1614610534576040517f08c379a000000000000000000000000000000000000000000000000000000000815260040161052b90610e3f565b60405180910390fd5b60018160030160006101000a81548160ff02191690831515021790555060008054906101000a900473ffffffffffffffffffffffffffffffffffffffff1673ffffffffffffffffffffffffffffffffffffffff1663a9059cbb8260010160009054906101000a900473ffffffffffffffffffffffffffffffffffffffff1683600201546040518363ffffffff1660e01b81526004016105d4929190610d5e565b600060405180830381600087803b1580156105ee57600080fd5b505af1158015610602573d6000803e3d6000fd5b50505050817fc8fa66dff4b9073528c3f1bf21a8dc9a18fdf09847e88e96188bc953aef519f08260010160009054906101000a900473ffffffffffffffffffffffffffffffffffffffff168360020154604051610660929190610d5e565b60405180910390a25050565b60006001600083815260200190815260200160002090508060030160009054906101000a900460ff16156106d5576040517f08c379a00000000000000000000000000000000000000000000000000000000081526004016106cc90610dd3565b60405180910390fd5b8060000160009054906101000a900473ffffffffffffffffffffffffffffffffffffffff1673ffffffffffffffffffffffffffffffffffffffff163373ffffffffffffffffffffffffffffffffffffffff1614610767576040517f08c379a000000000000000000000000000000000000000000000000000000000815260040161075e90610e3f565b60405180910390fd5b60018160030160006101000a81548160ff02191690831515021790555060008054906101000a900473ffffffffffffffffffffffffffffffffffffffff1673ffffffffffffffffffffffffffffffffffffffff1663a9059cbb8260000160009054906101000a900473ffffffffffffffffffffffffffffffffffffffff1683600201546040518363ffffffff1660e01b8152600401610807929190610d5e565b600060405180830381600087803b15801561082157600080fd5b505af1158015610835573d6000803e3d6000fd5b50505050817ff552ca82e113ac3c539c3d617f29fcd19c172a0c75dad017555c9e109f7fe1838260000160009054906101000a900473ffffffffffffffffffffffffffffffffffffffff168360020154604051610893929190610d5e565b60405180910390a25050565b6108a76109a7565b600160008381526020019081526020016000206040518060a00160405290816000820160009054906101000a900473ffffffffffffffffffffffffffffffffffffffff1673ffffffffffffffffffffffffffffffffffffffff1673ffffffffffffffffffffffffffffffffffffffff1681526020016001820160009054906101000a900473ffffffffffffffffffffffffffffffffffffffff1673ffffffffffffffffffffffffffffffffffffffff1673ffffffffffffffffffffffffffffffffffffffff168152602001600282015481526020016003820160009054906101000a900460ff161515151581526020016004820154815250509050919050565b6040518060a00160405280600073ffffffffffffffffffffffffffffffffffffffff168152602001600073ffffffffffffffffffffffffffffffffffffffff16815260200160008152602001600015158152602001600081525090565b600080fd5b6000819050919050565b610a1c81610a09565b8114610a2757600080fd5b50565b600081359050610a3981610a13565b92915050565b600073ffffffffffffffffffffffffffffffffffffffff82169050919050565b6000610a6a82610a3f565b9050919050565b610a7a81610a5f565b8114610a8557600080fd5b50565b600081359050610a9781610a71565b92915050565b6000819050919050565b610ab081610a9d565b8114610abb57600080fd5b50565b600081359050610acd81610aa7565b92915050565b600080600060608486031215610aec57610aeb610a04565b5b6000610afa86828701610a2a565b9350506020610b0b86828701610a88565b9250506040610b1c86828701610abe565b9150509250925092565b600060208284031215610b3c57610b3b610a04565b5b6000610b4a84828501610a2a565b91505092915050565b610b5c81610a5f565b82525050565b610b6b81610a9d565b82525050565b60008115159050919050565b610b8681610b71565b82525050565b600060a082019050610ba16000830188610b53565b610bae6020830187610b53565b610bbb6040830186610b62565b610bc86060830185610b7d565b610bd56080830184610b62565b9695505050505050565b6000602082019050610bf46000830184610b53565b92915050565b610c0381610a5f565b82525050565b610c1281610a9d565b82525050565b610c2181610b71565b82525050565b60a082016000820151610c3d6000850182610bfa565b506020820151610c506020850182610bfa565b506040820151610c636040850182610c09565b506060820151610c766060850182610c18565b506080820151610c896080850182610c09565b50505050565b600060a082019050610ca46000830184610c27565b92915050565b600082825260208201905092915050565b7f457363726f772065786973747300000000000000000000000000000000000000600082015250565b6000610cf1600d83610caa565b9150610cfc82610cbb565b602082019050919050565b60006020820190508181036000830152610d2081610ce4565b9050919050565b6000606082019050610d3c6000830186610b53565b610d496020830185610b53565b610d566040830184610b62565b949350505050565b6000604082019050610d736000830185610b53565b610d806020830184610b62565b9392505050565b7f416c72656164792072656c656173656400000000000000000000000000000000600082015250565b6000610dbd601083610caa565b9150610dc882610d87565b602082019050919050565b60006020820190508181036000830152610dec81610db0565b9050919050565b7f4f6e6c7920627579657200000000000000000000000000000000000000000000600082015250565b6000610e29600a83610caa565b9150610e3482610df3565b602082019050919050565b60006020820190508181036000830152610e5881610e1c565b905091905056fea2646970667358221220eba2736a66c696eca6ea3d0d3e21711521ddad3f90749c3d0efaab85826f3abe64736f6c63430008130033",
  "linkReferences": {},
  "deployedLinkReferences": {}
}