{
  "_format": "hh-sol-artifact-1",
  "contractName": "Stake",
  "sourceName": "contracts/Stake.sol",
  "abi": [
    {
      "anonymous": false,
      "inputs": [
        {
          "indexed": true,
          "internalType": "address",
          "name": "node",
          "type": "address"
        },
        {
          "indexed": false,
          "internalType": "uint256",
          "name": "amount",
          "type": "uint256"
        },
        {
          "indexed": false,
          "internalType": "string",
          "name": "reason",
          "type": "string"
        }
      ],
      "name": "Slashed",
      "type": "event"
    },
    {
      "anonymous": false,
      "inputs": [
        {
          "indexed": true,
          "internalType": "address",
          "name": "node",
          "type": "address"
        },
        {
          "indexed": false,
          "internalType": "uint256",
          "name": "amount",
          "type": "uint256"
        }
      ],
      "name": "Staked",
      "type": "event"
    },
    {
      "anonymous": false,
      "inputs": [
        {
          "indexed": true,
          "internalType": "address",
          "name": "node",
          "type": "address"
        },
        {
          "indexed": false,
          "internalType": "uint256",
          "name": "amount",
          "type": "uint256"
        }
      ],
      "name": "Unstaked",
      "type": "event"
    },
    {
      "inputs": [],
      "name": "MIN_STAKE",
      "outputs": [
        {
          "internalType": "uint256",
          "name": "",
          "type": "uint256"
        }
      ],
      "stateMutability": "view",
      "type": "function"
    },
    {
      "inputs": [
        {
          "internalType": "address",
          "name": "node",
          "type": "address"
        }
      ],
      "name": "getStakeInfo",
      "outputs": [
        {
          "components": [
            {
              "internalType": "uint256",
              "name": "amount",
              "type": "uint256"
            },
            {
              "internalType": "uint256",
              "name": "violations",
              "type": "uint256"
            },
            {
              "internalType": "uint256",
              "name": "lastViolationTime",
              "type": "uint256"
            },
            {
              "internalType": "bool",
              "name": "locked",
              "type": "bool"
            }
          ],
          "internalType": "struct Stake.StakeInfo",
          "name": "",
          "type": "tuple"
        }
      ],
      "stateMutability": "view",
      "type": "function"
    },
    {
      "inputs": [
        {
          "internalType": "address",
          "name": "node",
          "type": "address"
        }
      ],
      "name": "recordViolation",
      "outputs": [],
      "stateMutability": "nonpayable",
      "type": "function"
    },
    {
      "inputs": [
        {
          "internalType": "address",
          "name": "node",
          "type": "address"
        },
        {
          "internalType": "address",
          "name": "recipient",
          "type": "address"
        }
      ],
      "name": "slash",
      "outputs": [],
      "stateMutability": "nonpayable",
      "type": "function"
    },
    {
      "inputs": [],
      "name": "stake",
      "outputs": [],
      "stateMutability": "payable",
      "type": "function"
    },
    {
      "inputs": [
        {
          "internalType": "address",
          "name": "",
          "type": "address"
        }
      ],
      "name": "stakes",
      "outputs": [
        {
          "internalType": "uint256",
          "name": "amount",
          "type": "uint256"
        },
        {
          "internalType": "uint256",
          "name": "violations",
          "type": "uint256"
        },
        {
          "internalType": "uint256",
          "name": "lastViolationTime",
          "type": "uint256"
        },
        {
          "internalType": "bool",
          "name": "locked",
          "type": "bool"
        }
      ],
      "stateMutability": "view",
      "type": "function"
    },
    {
      "inputs": [],
      "name": "unstake",
      "outputs": [],
      "stateMutability": "nonpayable",
      "type": "function"
    }
  ],
  "bytecode": "0x608060405234801561001057600080fd5b50610e6d806100206000396000f3fe6080604052600436106100705760003560e01c80636a8b72e11161004e5780636a8b72e1146100d65780637aeccce9146100ff578063c345315314610128578063cb1c2b5c1461016557610070565b806316934fc4146100755780632def6620146100b55780633a4b66f1146100cc575b600080fd5b34801561008157600080fd5b5061009c60048036038101906100979190610956565b610190565b6040516100ac94939291906109b7565b60405180910390f35b3480156100c157600080fd5b506100ca6101cd565b005b6100d4610448565b005b3480156100e257600080fd5b506100fd60048036038101906100f89190610956565b610537565b005b34801561010b57600080fd5b50610126600480360381019061012191906109fc565b61067b565b005b34801561013457600080fd5b5061014f600480360381019061014a9190610956565b610830565b60405161015c9190610aaf565b60405180910390f35b34801561017157600080fd5b5061017a6108c1565b6040516101879190610aca565b60405180910390f35b60006020528060005260406000206000915090508060000154908060010154908060020154908060030160009054906101000a900460ff16905084565b6000803373ffffffffffffffffffffffffffffffffffffffff1673ffffffffffffffffffffffffffffffffffffffff16815260200190815260200160002060030160009054906101000a900460ff161561025c576040517f08c379a000000000000000000000000000000000000000000000000000000000815260040161025390610b42565b60405180910390fd5b60036000803373ffffffffffffffffffffffffffffffffffffffff1673ffffffffffffffffffffffffffffffffffffffff16815260200190815260200160002060010154106102e0576040517f08c379a00000000000000000000000000000000000000000000000000000000081526004016102d790610bae565b60405180910390fd5b60008060003373ffffffffffffffffffffffffffffffffffffffff1673ffffffffffffffffffffffffffffffffffffffff16815260200190815260200160002060000154905060008111610369576040517f08c379a000000000000000000000000000000000000000000000000000000000815260040161036090610c1a565b60405180910390fd5b60008060003373ffffffffffffffffffffffffffffffffffffffff1673ffffffffffffffffffffffffffffffffffffffff168152602001908152602001600020600001819055503373ffffffffffffffffffffffffffffffffffffffff166108fc829081150290604051600060405180830381858888f193505050501580156103f6573d6000803e3d6000fd5b503373ffffffffffffffffffffffffffffffffffffffff167f0f5bb82176feb1b5e747e28471aa92156a04d9f3ab9f45f28e2d704232b93f758260405161043d9190610aca565b60405180910390a250565b630bebc20034101561048f576040517f08c379a000000000000000000000000000000000000000000000000000000000815260040161048690610c86565b60405180910390fd5b346000803373ffffffffffffffffffffffffffffffffffffffff1673ffffffffffffffffffffffffffffffffffffffff16815260200190815260200160002060000160008282546104e09190610cd5565b925050819055503373ffffffffffffffffffffffffffffffffffffffff167f9e71bc8eea02a63969f509818f2dafb9254532904319f9dbda79b67bd34a5f3d3460405161052d9190610aca565b60405180910390a2565b6000808273ffffffffffffffffffffffffffffffffffffffff1673ffffffffffffffffffffffffffffffffffffffff168152602001908152602001600020600101600081548092919061058990610d09565b9190505550426000808373ffffffffffffffffffffffffffffffffffffffff1673ffffffffffffffffffffffffffffffffffffffff1681526020019081526020016000206002018190555060036000808373ffffffffffffffffffffffffffffffffffffffff1673ffffffffffffffffffffffffffffffffffffffff16815260200190815260200160002060010154106106785760016000808373ffffffffffffffffffffffffffffffffffffffff1673ffffffffffffffffffffffffffffffffffffffff16815260200190815260200160002060030160006101000a81548160ff0219169083151502179055505b50565b6000808373ffffffffffffffffffffffffffffffffffffffff1673ffffffffffffffffffffffffffffffffffffffff16815260200190815260200160002060030160009054906101000a900460ff16610709576040517f08c379a000000000000000000000000000000000000000000000000000000000815260040161070090610d9d565b60405180910390fd5b60008060008473ffffffffffffffffffffffffffffffffffffffff1673ffffffffffffffffffffffffffffffffffffffff16815260200190815260200160002060000154905060008060008573ffffffffffffffffffffffffffffffffffffffff1673ffffffffffffffffffffffffffffffffffffffff168152602001908152602001600020600001819055508173ffffffffffffffffffffffffffffffffffffffff166108fc829081150290604051600060405180830381858888f193505050501580156107dc573d6000803e3d6000fd5b508273ffffffffffffffffffffffffffffffffffffffff167f7e947095ed288d8885423bdaef4015b7420ffa9b84d62ef67c402e8bc36a8ea9826040516108239190610e09565b60405180910390a2505050565b6108386108c9565b6000808373ffffffffffffffffffffffffffffffffffffffff1673ffffffffffffffffffffffffffffffffffffffff1681526020019081526020016000206040518060800160405290816000820154815260200160018201548152602001600282015481526020016003820160009054906101000a900460ff1615151515815250509050919050565b630bebc20081565b60405180608001604052806000815260200160008152602001600081526020016000151581525090565b600080fd5b600073ffffffffffffffffffffffffffffffffffffffff82169050919050565b6000610923826108f8565b9050919050565b61093381610918565b811461093e57600080fd5b50565b6000813590506109508161092a565b92915050565b60006020828403121561096c5761096b6108f3565b5b600061097a84828501610941565b91505092915050565b6000819050919050565b61099681610983565b82525050565b60008115159050919050565b6109b18161099c565b82525050565b60006080820190506109cc600083018761098d565b6109d9602083018661098d565b6109e6604083018561098d565b6109f360608301846109a8565b95945050505050565b60008060408385031215610a1357610a126108f3565b5b6000610a2185828601610941565b9250506020610a3285828601610941565b9150509250929050565b610a4581610983565b82525050565b610a548161099c565b82525050565b608082016000820151610a706000850182610a3c565b506020820151610a836020850182610a3c565b506040820151610a966040850182610a3c565b506060820151610aa96060850182610a4b565b50505050565b6000608082019050610ac46000830184610a5a565b92915050565b6000602082019050610adf600083018461098d565b92915050565b600082825260208201905092915050565b7f5374616b65206c6f636b65640000000000000000000000000000000000000000600082015250565b6000610b2c600c83610ae5565b9150610b3782610af6565b602082019050919050565b60006020820190508181036000830152610b5b81610b1f565b9050919050565b7f546f6f206d616e792076696f6c6174696f6e7300000000000000000000000000600082015250565b6000610b98601383610ae5565b9150610ba382610b62565b602082019050919050565b60006020820190508181036000830152610bc781610b8b565b9050919050565b7f4e6f207374616b65000000000000000000000000000000000000000000000000600082015250565b6000610c04600883610ae5565b9150610c0f82610bce565b602082019050919050565b60006020820190508181036000830152610c3381610bf7565b9050919050565b7f42656c6f77206d696e696d756d00000000000000000000000000000000000000600082015250565b6000610c70600d83610ae5565b9150610c7b82610c3a565b602082019050919050565b60006020820190508181036000830152610c9f81610c63565b9050919050565b7f4e487b7100000000000000000000000000000000000000000000000000000000600052601160045260246000fd5b6000610ce082610983565b9150610ceb83610983565b9250828201905080821115610d0357610d02610ca6565b5b92915050565b6000610d1482610983565b91507fffffffffffffffffffffffffffffffffffffffffffffffffffffffffffffffff8203610d4657610d45610ca6565b5b600182019050919050565b7f4e6f74206c6f636b656400000000000000000000000000000000000000000000600082015250565b6000610d87600a83610ae5565b9150610d9282610d51565b602082019050919050565b60006020820190508181036000830152610db681610d7a565b9050919050565b7f4d61782076696f6c6174696f6e73000000000000000000000000000000000000600082015250565b6000610df3600e83610ae5565b9150610dfe82610dbd565b602082019050919050565b6000604082019050610e1e600083018461098d565b8181036020830152610e2f81610de6565b90509291505056fea2646970667358221220e7a6297562b2060bbea7e269cac9268d5bb1cc31a0b04ffdbd52bad86b24e91b64736f6c63430008130033",
  "linkReferences": {},
  "deployedLinkReferences": {}
}